:100000000C942A001895000018950000189500001F
:10001000189500001895000018950000189500002C
:100020000C949C001895000018950000189500008D
:10003000189500001895000018950000189500000C
:1000400018950000189500001895000018950000FC
:10005000189500008FE58DBFC8E3E0E24E2E84E0E6
:100060008EBFD4E0F4E05F2EA89584B7082E877F7A
:1000700084BF88E1992781BD91BDEEEFF3E0A0E652
:10008000B0E088278D933197E9F70E94D703662463
:100090008FEF8ABB8FEF87BB889A899A8A9A8B9A4F
:1000A0008C9A0E94BF030E94BB038CE00E9425042F
:1000B00080E08093600080E0809361008CE080931A
:1000C000620086EE97E0A5E6B0E08D939C9389E010
:1000D000809364008CE0809363000E94BF030E94C1
:1000E000BB03EEEDF9E00E94B4038FEB11E00E9438
:1000F000CE03E4EEF9E00E94B403A698AE9AA79866
:10010000AF9A8D98959A8E98969A8F98979A80E044
:100110008FBD83E08EBD789479B7746079BF79B76D
:10012000746079BF83E08EBD8CE394E19DBD8CBD8E
:100130000C949800F894FFCF0F921F922F923F9249
:100140004F925F927F92AF92BF920F931F932F9324
:100150003F934F935F936F937F938F939F93AF934F
:10016000BF93CF93DF93EF93FF938FB78F939E99B6
:100170000C94BC000E9432039F990C94C1000E9411
:10018000440385990C94C6000E94560386990C94EA
:10019000CB000E94880387990C94D0000E949A0398
:1001A000009160000A3010F00C94F1008091600022
:1001B0000E945104A7E6B0E08C93A7E6B0E08C91D2
:1001C0008BBB8FE71DE00E94CE03EAEEF9E00E94B0
:1001D000B403E0E6F0E0A8E0B4E00E949A040E94D4
:1001E000AC03009161000A3010F00C94160180916C
:1001F00061000E945104A7E6B0E08C93A7E6B0E04E
:100200008C9188BB8FE71AE00E94CE03EAEEF9E0FA
:100210000E94B403E1E6F0E0A8E0B4E00E949A0492
:100220000E94AC03ECEEF9E00E94B403009162007E
:100230000A3010F00C948201949A00916200003010
:1002400011F00C94270190989198929893980091AE
:100250006200013011F00C942E01909A009162001E
:10026000023011F00C9436019098919A009162003E
:10027000033011F00C943E01909A919A0091620023
:10028000043011F00C94470190989198929A009143
:100290006200053011F00C944E01909A00916200BA
:1002A000063011F00C9456019098919A00916200DA
:1002B000073011F00C945D01909A009162000830B3
:1002C00011F00C946701909891989298939A0091EC
:1002D0006200093011F00C946E01909A8FE717E0DC
:1002E0000E94CE03EAEEF9E00E94B403E2E6F0E0F9
:1002F000A8E0B4E00E949A040E94AC03ECEEF9E09E
:100300000E94B40300916000093018F011F00C94C1
:100310008B010C94A201809160000E945104A7E619
:10032000B0E08C93A7E6B0E08C918BBB8FE71DE02B
:100330000E94CE03E0E6F0E0A8E0B4E00E949A0458
:100340000E94AC0300916100093018F011F00C9488
:10035000AB010C94C601809161000E945104A7E694
:10036000B0E08C93A7E6B0E08C9188BB8FE71AE0F1
:100370000E94CE03E1E6F0E0A8E0B4E00E949A0417
:100380000E94AC03ECEEF9E00E94B403009162001D
:10039000093018F011F00C94CF010C9431029498AC
:1003A000009162000A3011F00C94DA019098919853
:1003B00092989398009162000B3011F00C94E10137
:1003C000909A009162000C3011F00C94E901909821
:1003D000919A009162000D3011F00C94F101909A05
:1003E000919A009162000E3011F00C94FA019098ED
:1003F0009198929A009162000F3011F00C940102D2
:10040000909A00916200003111F00C9409029098CA
:10041000919A00916200013111F00C941002909AAF
:1004200000916200023111F00C941A029098919898
:100430009298939A00916200033111F00C9421027A
:10044000909A8FE717E00E94CE03E2E6F0E0A8E082
:10045000B4E00E949A040E94AC03ECEEF9E00E9422
:10046000B403009163000A3010F00C9447028FEB44
:100470001FE00E94CE03EAEEF9E00E94B403E3E637
:10048000F0E0A8E0B4E00E949A040E94AC0300915E
:1004900064000A3010F00C9461028FEB1CE00E94A3
:1004A000CE03EAEEF9E00E94B403E4E6F0E0A8E04F
:1004B000B4E00E949A040E94AC03EEEEF9E00E94C0
:1004C000B40300916300093018F011F00C946A0233
:1004D0000C9476028FEB1FE00E94CE03E3E6F0E07F
:1004E000A8E0B4E00E949A040E94AC03009164006A
:1004F000093018F011F00C947F020C948F028FEBEE
:100500001CE00E94CE03E4E6F0E0A8E0B4E00E9424
:100510009A040E94AC03EEEEF9E00E94B4038FEB64
:1005200017E00E94CE03E5E6F0E0A8E0B4E00E9408
:100530008A040E94AC03EEEEF9E00E94B403A0E648
:10054000B0E08C918F5F8C93009160000B3318F0BA
:1005500011F00C94AD020C94120380E080936000C3
:10056000A1E6B0E08C918F5F8C93009161000C3319
:1005700011F00C94120380E080936100A2E6B0E0D9
:100580008C918F5F8C9300916200083111F00C9474
:10059000120380E080936200A3E6B0E08C918F5F4D
:1005A0008C9300916400073010F00C94E8020091E5
:1005B00063000F3118F011F00C94E0020C94E80283
:1005C00081E080936300A4E6B0E08C918F5F8C9310
:1005D00000916400063018F011F00C94F1020C94B4
:1005E0000203009163000E3118F011F00C94FA022E
:1005F0000C94020381E080936300A4E6B0E08C9148
:100600008F5F8C93009164000C3018F011F00C9403
:100610000B030C94120381E080936400A5E6B0E024
:100620000E94A5038CE394E19DBD8CBD8F918FBF8B
:10063000FF91EF91DF91CF91BF91AF919F918F91FA
:100640007F916F915F914F913F912F911F910F91EA
:10065000BF90AF907F905F904F903F902F901F90F2
:100660000F901895A2E6B0E08C918F5F8C9300916B
:100670006200073118F011F00C9440030C9443030E
:1006800080E0809362000895A1E6B0E08C918F5FD6
:100690008C93009161000B3318F011F00C9452030D
:1006A0000C94550380E080936100089500916400EC
:1006B000073010F00C946D03A3E6B0E08C918F5FCF
:1006C0008C93009163000F3118F011F00C946A03C1
:1006D0000C946D0381E08093630000916400063008
:1006E00018F011F00C9476030C948703A3E6B0E0A5
:1006F0008C918F5F8C93009163000E3118F011F094
:100700000C9484030C94870381E080936300089524
:10071000A4E6B0E08C918F5F8C93009164000C3064
:1007200018F011F00C9496030C94990381E08093D7
:1007300064000895A5E6B0E00D911C910F5F1F4F76
:10074000A5E6B0E00D931C930895ED91FC91EF5F49
:10075000FF4FFC93EE930895A8E0B4E08D918823B9
:1007600011F06DD0FBCF08950E947804802D11F018
:1007700066D0FACF089582E068D016D012C081E02A
:1007800064D012D080E861C08FE7213039F08FEB60
:10079000223021F08FE8233009F08FEC810F0C9488
:1007A000250480E852D0089583E099278DC08AEF10
:1007B00090E00E946404A59AA49AA39AA29AA19A8E
:1007C000A09AA89885E090E00E946404A998AD984A
:1007D000AC98AB9AAA9AA99AEF93FF93E0E6F0E05F
:1007E0000E945804FF91EF91A9986BD0A99AEF93BA
:1007F000FF93E0E6F0E00E945804FF91EF91A99882
:1008000060D0A99AEF93FF93E0E6F0E00E945804CD
:10081000FF91EF91A99855D0AA98A99AEF93FF93C9
:10082000E0E6F0E00E945804FF91EF91A99849D0CA
:1008300088E20BD08EE009D086E007D00895A89A10
:10084000829505D004D03DD00895A898F9CF85951C
:1008500010F4AA9A01C0AA98859510F4AB9A01C029
:10086000AB98859510F4AC9A01C0AC98859510F4BE
:10087000AD9A01C0AD98A99AEF93FF93E0E6F0E03E
:100880000E945804FF91EF91A9980895982F82959E
:100890008F70805D8D939F70905D9D9388278C9362
:1008A00008954AE0082F0E94DF040295802B0895E6
:1008B0003197F1F70895689462F80895E89462F822
:1008C000089581E090E000C0EF93FF93EE27E82BBE
:1008D000E92B31F0E8EEF3E03197F1F70197D1F72A
:1008E000FF91EF9108950191119121913081089527
:1008F000C895319600200895000F111F221F331F45
:10090000089500951095209530950F5F1F4F2F4F3C
:100910003F4F0895019110810FC00E9473040EC0D3
:100920000E94730410C00191108117FF05C03FEFB2
:100930002FEF04C0008111272227332737FF03C080
:10094000E0DF8DE28D93CF92DF92EF92AA24BB2459
:10095000CC24DD24EE2440E2EAE0FF2755E093E3D7
:100960008081890F87FD9F7083FD907F891B819314
:100970005A95A9F7C1DFAA1CBB1CCC1CDD1CEE1CC0
:100980004A9551F7E894EFE0FF2782910BD0EB30C6
:10099000E0F71EF068948A2D09D04D93EF90DF9018
:1009A000CF900895982F829501D0892F8F70805D08
:1009B00026F0803309F4089568948D930895FF9389
:1009C000881BF9E0001FFA9511F4FF910895881F24
:1009D000841B18F4840F8894F5CF0894F3CF7469BE
:1009E0006D653A00446174653A0030003A002F00AA
:00000001FF
